{
  "contractName": "DemocracyScheme",
  "abi": [
    {
      "constant": true,
      "inputs": [],
      "name": "hasInitialized",
      "outputs": [
        {
          "name": "",
          "type": "bool"
        }
      ],
      "payable": false,
      "stateMutability": "view",
      "type": "function"
    },
    {
      "constant": true,
      "inputs": [
        {
          "name": "",
          "type": "address"
        },
        {
          "name": "",
          "type": "uint256"
        }
      ],
      "name": "RFLVotes",
      "outputs": [
        {
          "name": "RFLid",
          "type": "uint256"
        },
        {
          "name": "blockstamp",
          "type": "uint256"
        },
        {
          "name": "supply",
          "type": "uint256"
        },
        {
          "name": "quorum",
          "type": "uint256"
        },
        {
          "name": "required",
          "type": "uint256"
        },
        {
          "name": "yea",
          "type": "uint256"
        },
        {
          "name": "nay",
          "type": "uint256"
        },
        {
          "name": "total",
          "type": "uint256"
        },
        {
          "name": "participation",
          "type": "uint256"
        },
        {
          "name": "state",
          "type": "uint8"
        }
      ],
      "payable": false,
      "stateMutability": "view",
      "type": "function"
    },
    {
      "constant": true,
      "inputs": [],
      "name": "quorum",
      "outputs": [
        {
          "name": "",
          "type": "uint256"
        }
      ],
      "payable": false,
      "stateMutability": "view",
      "type": "function"
    },
    {
      "constant": true,
      "inputs": [
        {
          "name": "",
          "type": "address"
        },
        {
          "name": "",
          "type": "uint256"
        },
        {
          "name": "",
          "type": "address"
        }
      ],
      "name": "RFLVotesBallots",
      "outputs": [
        {
          "name": "state",
          "type": "uint8"
        },
        {
          "name": "value",
          "type": "uint256"
        }
      ],
      "payable": false,
      "stateMutability": "view",
      "type": "function"
    },
    {
      "constant": true,
      "inputs": [
        {
          "name": "_script",
          "type": "bytes"
        }
      ],
      "name": "getEVMScriptExecutor",
      "outputs": [
        {
          "name": "",
          "type": "address"
        }
      ],
      "payable": false,
      "stateMutability": "view",
      "type": "function"
    },
    {
      "constant": true,
      "inputs": [],
      "name": "getRecoveryVault",
      "outputs": [
        {
          "name": "",
          "type": "address"
        }
      ],
      "payable": false,
      "stateMutability": "view",
      "type": "function"
    },
    {
      "constant": true,
      "inputs": [],
      "name": "UPDATE_PARAMETERS_ROLE",
      "outputs": [
        {
          "name": "",
          "type": "bytes32"
        }
      ],
      "payable": false,
      "stateMutability": "view",
      "type": "function"
    },
    {
      "constant": true,
      "inputs": [
        {
          "name": "",
          "type": "address"
        },
        {
          "name": "",
          "type": "uint256"
        }
      ],
      "name": "RFIVotes",
      "outputs": [
        {
          "name": "RFIid",
          "type": "uint256"
        },
        {
          "name": "blockstamp",
          "type": "uint256"
        },
        {
          "name": "supply",
          "type": "uint256"
        },
        {
          "name": "quorum",
          "type": "uint256"
        },
        {
          "name": "required",
          "type": "uint256"
        },
        {
          "name": "yea",
          "type": "uint256"
        },
        {
          "name": "nay",
          "type": "uint256"
        },
        {
          "name": "participation",
          "type": "uint256"
        },
        {
          "name": "state",
          "type": "uint8"
        }
      ],
      "payable": false,
      "stateMutability": "view",
      "type": "function"
    },
    {
      "constant": true,
      "inputs": [
        {
          "name": "token",
          "type": "address"
        }
      ],
      "name": "allowRecoverability",
      "outputs": [
        {
          "name": "",
          "type": "bool"
        }
      ],
      "payable": false,
      "stateMutability": "view",
      "type": "function"
    },
    {
      "constant": true,
      "inputs": [],
      "name": "appId",
      "outputs": [
        {
          "name": "",
          "type": "bytes32"
        }
      ],
      "payable": false,
      "stateMutability": "view",
      "type": "function"
    },
    {
      "constant": true,
      "inputs": [
        {
          "name": "",
          "type": "address"
        },
        {
          "name": "",
          "type": "uint256"
        },
        {
          "name": "",
          "type": "address"
        }
      ],
      "name": "RFIVotesBallots",
      "outputs": [
        {
          "name": "",
          "type": "uint8"
        }
      ],
      "payable": false,
      "stateMutability": "view",
      "type": "function"
    },
    {
      "constant": true,
      "inputs": [],
      "name": "getInitializationBlock",
      "outputs": [
        {
          "name": "",
          "type": "uint256"
        }
      ],
      "payable": false,
      "stateMutability": "view",
      "type": "function"
    },
    {
      "constant": false,
      "inputs": [
        {
          "name": "_token",
          "type": "address"
        }
      ],
      "name": "transferToVault",
      "outputs": [],
      "payable": false,
      "stateMutability": "nonpayable",
      "type": "function"
    },
    {
      "constant": true,
      "inputs": [
        {
          "name": "_sender",
          "type": "address"
        },
        {
          "name": "_role",
          "type": "bytes32"
        },
        {
          "name": "_params",
          "type": "uint256[]"
        }
      ],
      "name": "canPerform",
      "outputs": [
        {
          "name": "",
          "type": "bool"
        }
      ],
      "payable": false,
      "stateMutability": "view",
      "type": "function"
    },
    {
      "constant": true,
      "inputs": [],
      "name": "getEVMScriptRegistry",
      "outputs": [
        {
          "name": "",
          "type": "address"
        }
      ],
      "payable": false,
      "stateMutability": "view",
      "type": "function"
    },
    {
      "constant": true,
      "inputs": [],
      "name": "kernel",
      "outputs": [
        {
          "name": "",
          "type": "address"
        }
      ],
      "payable": false,
      "stateMutability": "view",
      "type": "function"
    },
    {
      "constant": true,
      "inputs": [],
      "name": "required",
      "outputs": [
        {
          "name": "",
          "type": "uint256"
        }
      ],
      "payable": false,
      "stateMutability": "view",
      "type": "function"
    },
    {
      "constant": true,
      "inputs": [],
      "name": "isPetrified",
      "outputs": [
        {
          "name": "",
          "type": "bool"
        }
      ],
      "payable": false,
      "stateMutability": "view",
      "type": "function"
    },
    {
      "constant": true,
      "inputs": [],
      "name": "token",
      "outputs": [
        {
          "name": "",
          "type": "address"
        }
      ],
      "payable": false,
      "stateMutability": "view",
      "type": "function"
    },
    {
      "constant": true,
      "inputs": [],
      "name": "PCT_BASE",
      "outputs": [
        {
          "name": "",
          "type": "uint64"
        }
      ],
      "payable": false,
      "stateMutability": "view",
      "type": "function"
    },
    {
      "anonymous": false,
      "inputs": [
        {
          "indexed": false,
          "name": "organism",
          "type": "address"
        },
        {
          "indexed": false,
          "name": "id",
          "type": "uint256"
        }
      ],
      "name": "NewRFIVote",
      "type": "event"
    },
    {
      "anonymous": false,
      "inputs": [
        {
          "indexed": false,
          "name": "organism",
          "type": "address"
        },
        {
          "indexed": false,
          "name": "id",
          "type": "uint256"
        },
        {
          "indexed": false,
          "name": "voter",
          "type": "address"
        },
        {
          "indexed": false,
          "name": "supports",
          "type": "bool"
        },
        {
          "indexed": false,
          "name": "stake",
          "type": "uint256"
        }
      ],
      "name": "CastRFIVote",
      "type": "event"
    },
    {
      "anonymous": false,
      "inputs": [
        {
          "indexed": false,
          "name": "organism",
          "type": "address"
        },
        {
          "indexed": false,
          "name": "id",
          "type": "uint256"
        }
      ],
      "name": "CancelRFIVote",
      "type": "event"
    },
    {
      "anonymous": false,
      "inputs": [
        {
          "indexed": false,
          "name": "organism",
          "type": "address"
        },
        {
          "indexed": false,
          "name": "id",
          "type": "uint256"
        }
      ],
      "name": "ExecuteRFIVote",
      "type": "event"
    },
    {
      "anonymous": false,
      "inputs": [
        {
          "indexed": false,
          "name": "organism",
          "type": "address"
        },
        {
          "indexed": false,
          "name": "id",
          "type": "uint256"
        }
      ],
      "name": "NewRFLVote",
      "type": "event"
    },
    {
      "anonymous": false,
      "inputs": [
        {
          "indexed": false,
          "name": "organism",
          "type": "address"
        },
        {
          "indexed": false,
          "name": "id",
          "type": "uint256"
        },
        {
          "indexed": false,
          "name": "voter",
          "type": "address"
        },
        {
          "indexed": false,
          "name": "supports",
          "type": "bool"
        },
        {
          "indexed": false,
          "name": "value",
          "type": "uint256"
        },
        {
          "indexed": false,
          "name": "stake",
          "type": "uint256"
        }
      ],
      "name": "CastRFLVote",
      "type": "event"
    },
    {
      "anonymous": false,
      "inputs": [
        {
          "indexed": false,
          "name": "organism",
          "type": "address"
        },
        {
          "indexed": false,
          "name": "id",
          "type": "uint256"
        }
      ],
      "name": "CancelRFLVote",
      "type": "event"
    },
    {
      "anonymous": false,
      "inputs": [
        {
          "indexed": false,
          "name": "organism",
          "type": "address"
        },
        {
          "indexed": false,
          "name": "id",
          "type": "uint256"
        }
      ],
      "name": "ExecuteRFLVote",
      "type": "event"
    },
    {
      "anonymous": false,
      "inputs": [
        {
          "indexed": true,
          "name": "executor",
          "type": "address"
        },
        {
          "indexed": false,
          "name": "script",
          "type": "bytes"
        },
        {
          "indexed": false,
          "name": "input",
          "type": "bytes"
        },
        {
          "indexed": false,
          "name": "returnData",
          "type": "bytes"
        }
      ],
      "name": "ScriptResult",
      "type": "event"
    },
    {
      "anonymous": false,
      "inputs": [
        {
          "indexed": true,
          "name": "organism",
          "type": "address"
        },
        {
          "indexed": true,
          "name": "id",
          "type": "uint256"
        },
        {
          "indexed": false,
          "name": "sender",
          "type": "address"
        }
      ],
      "name": "CreateRFI",
      "type": "event"
    },
    {
      "anonymous": false,
      "inputs": [
        {
          "indexed": true,
          "name": "organism",
          "type": "address"
        },
        {
          "indexed": true,
          "name": "id",
          "type": "uint256"
        },
        {
          "indexed": false,
          "name": "sender",
          "type": "address"
        }
      ],
      "name": "MergeRFI",
      "type": "event"
    },
    {
      "anonymous": false,
      "inputs": [
        {
          "indexed": true,
          "name": "organism",
          "type": "address"
        },
        {
          "indexed": true,
          "name": "id",
          "type": "uint256"
        },
        {
          "indexed": false,
          "name": "sender",
          "type": "address"
        }
      ],
      "name": "RejectRFI",
      "type": "event"
    },
    {
      "anonymous": false,
      "inputs": [
        {
          "indexed": true,
          "name": "organism",
          "type": "address"
        },
        {
          "indexed": true,
          "name": "id",
          "type": "uint256"
        },
        {
          "indexed": false,
          "name": "sender",
          "type": "address"
        }
      ],
      "name": "CreateRFL",
      "type": "event"
    },
    {
      "anonymous": false,
      "inputs": [
        {
          "indexed": true,
          "name": "organism",
          "type": "address"
        },
        {
          "indexed": true,
          "name": "id",
          "type": "uint256"
        },
        {
          "indexed": false,
          "name": "value",
          "type": "uint256"
        },
        {
          "indexed": false,
          "name": "sender",
          "type": "address"
        }
      ],
      "name": "AcceptRFL",
      "type": "event"
    },
    {
      "anonymous": false,
      "inputs": [
        {
          "indexed": true,
          "name": "organism",
          "type": "address"
        },
        {
          "indexed": true,
          "name": "id",
          "type": "uint256"
        },
        {
          "indexed": false,
          "name": "sender",
          "type": "address"
        }
      ],
      "name": "RejectRFL",
      "type": "event"
    },
    {
      "constant": false,
      "inputs": [
        {
          "name": "_token",
          "type": "address"
        },
        {
          "name": "_quorum",
          "type": "uint256"
        },
        {
          "name": "_required",
          "type": "uint256"
        }
      ],
      "name": "initialize",
      "outputs": [],
      "payable": false,
      "stateMutability": "nonpayable",
      "type": "function"
    },
    {
      "constant": false,
      "inputs": [
        {
          "name": "_organism",
          "type": "address"
        },
        {
          "components": [
            {
              "name": "metadata",
              "type": "string"
            }
          ],
          "name": "_individuation",
          "type": "tuple"
        },
        {
          "components": [
            {
              "name": "destination",
              "type": "address"
            },
            {
              "name": "minimum",
              "type": "uint256"
            },
            {
              "name": "metadata",
              "type": "string"
            }
          ],
          "name": "_lineages",
          "type": "tuple[]"
        }
      ],
      "name": "createRFI",
      "outputs": [],
      "payable": false,
      "stateMutability": "nonpayable",
      "type": "function"
    },
    {
      "constant": false,
      "inputs": [
        {
          "name": "_organism",
          "type": "address"
        },
        {
          "name": "_RFIid",
          "type": "uint256"
        }
      ],
      "name": "mergeRFI",
      "outputs": [],
      "payable": false,
      "stateMutability": "nonpayable",
      "type": "function"
    },
    {
      "constant": false,
      "inputs": [
        {
          "name": "_organism",
          "type": "address"
        },
        {
          "name": "_RFIid",
          "type": "uint256"
        }
      ],
      "name": "rejectRFI",
      "outputs": [],
      "payable": false,
      "stateMutability": "nonpayable",
      "type": "function"
    },
    {
      "constant": false,
      "inputs": [
        {
          "name": "_organism",
          "type": "address"
        },
        {
          "name": "_RFLid",
          "type": "uint256"
        },
        {
          "name": "_value",
          "type": "uint256"
        }
      ],
      "name": "acceptRFL",
      "outputs": [],
      "payable": false,
      "stateMutability": "nonpayable",
      "type": "function"
    },
    {
      "constant": false,
      "inputs": [
        {
          "name": "_organism",
          "type": "address"
        },
        {
          "name": "_RFLid",
          "type": "uint256"
        }
      ],
      "name": "rejectRFL",
      "outputs": [],
      "payable": false,
      "stateMutability": "nonpayable",
      "type": "function"
    },
    {
      "constant": true,
      "inputs": [
        {
          "name": "_organism",
          "type": "address"
        },
        {
          "name": "_RFIid",
          "type": "uint256"
        }
      ],
      "name": "getRFIVote",
      "outputs": [
        {
          "components": [
            {
              "name": "RFIid",
              "type": "uint256"
            },
            {
              "name": "blockstamp",
              "type": "uint256"
            },
            {
              "name": "supply",
              "type": "uint256"
            },
            {
              "name": "quorum",
              "type": "uint256"
            },
            {
              "name": "required",
              "type": "uint256"
            },
            {
              "name": "yea",
              "type": "uint256"
            },
            {
              "name": "nay",
              "type": "uint256"
            },
            {
              "name": "participation",
              "type": "uint256"
            },
            {
              "name": "state",
              "type": "uint8"
            }
          ],
          "name": "",
          "type": "tuple"
        }
      ],
      "payable": false,
      "stateMutability": "view",
      "type": "function"
    },
    {
      "constant": true,
      "inputs": [
        {
          "name": "_organism",
          "type": "address"
        },
        {
          "name": "_RFLid",
          "type": "uint256"
        }
      ],
      "name": "getRFLVote",
      "outputs": [
        {
          "components": [
            {
              "name": "RFLid",
              "type": "uint256"
            },
            {
              "name": "blockstamp",
              "type": "uint256"
            },
            {
              "name": "supply",
              "type": "uint256"
            },
            {
              "name": "quorum",
              "type": "uint256"
            },
            {
              "name": "required",
              "type": "uint256"
            },
            {
              "name": "yea",
              "type": "uint256"
            },
            {
              "name": "nay",
              "type": "uint256"
            },
            {
              "name": "total",
              "type": "uint256"
            },
            {
              "name": "participation",
              "type": "uint256"
            },
            {
              "name": "state",
              "type": "uint8"
            }
          ],
          "name": "",
          "type": "tuple"
        }
      ],
      "payable": false,
      "stateMutability": "view",
      "type": "function"
    },
    {
      "constant": true,
      "inputs": [
        {
          "name": "_organism",
          "type": "address"
        },
        {
          "name": "_RFIid",
          "type": "uint256"
        }
      ],
      "name": "getRFIMetadata",
      "outputs": [
        {
          "name": "",
          "type": "string"
        }
      ],
      "payable": false,
      "stateMutability": "view",
      "type": "function"
    },
    {
      "constant": true,
      "inputs": [
        {
          "name": "_organism",
          "type": "address"
        },
        {
          "name": "_RFIid",
          "type": "uint256"
        },
        {
          "name": "_voter",
          "type": "address"
        }
      ],
      "name": "canVoteOnRFI",
      "outputs": [
        {
          "name": "",
          "type": "bool"
        }
      ],
      "payable": false,
      "stateMutability": "view",
      "type": "function"
    },
    {
      "constant": true,
      "inputs": [
        {
          "name": "_organism",
          "type": "address"
        },
        {
          "name": "_RFLid",
          "type": "uint256"
        },
        {
          "name": "_voter",
          "type": "address"
        }
      ],
      "name": "canVoteOnRFL",
      "outputs": [
        {
          "name": "",
          "type": "bool"
        }
      ],
      "payable": false,
      "stateMutability": "view",
      "type": "function"
    },
    {
      "constant": true,
      "inputs": [
        {
          "name": "_organism",
          "type": "address"
        },
        {
          "name": "_RFIid",
          "type": "uint256"
        }
      ],
      "name": "canExecuteRFIVote",
      "outputs": [
        {
          "name": "",
          "type": "bool"
        }
      ],
      "payable": false,
      "stateMutability": "view",
      "type": "function"
    },
    {
      "constant": true,
      "inputs": [
        {
          "name": "_organism",
          "type": "address"
        },
        {
          "name": "_RFLid",
          "type": "uint256"
        }
      ],
      "name": "canExecuteRFLVote",
      "outputs": [
        {
          "name": "",
          "type": "bool"
        }
      ],
      "payable": false,
      "stateMutability": "view",
      "type": "function"
    }
  ],
  "bytecode": "0x60806040526200001d62000023640100000000026401000000009004565b620002ef565b60006200003e620000f8640100000000026401000000009004565b146040805190810160405280601881526020017f494e49545f414c52454144595f494e495449414c495a45440000000000000000815250901515620000bb576040517f08c379a0000000000000000000000000000000000000000000000000000000008152600401620000b2919062000279565b60405180910390fd5b50620000f67fffffffffffffffffffffffffffffffffffffffffffffffffffffffffffffffff62000145640100000000026401000000009004565b565b6000620001407febb05b386a8d34882b8711d156f463690983dc47815980fb82aeeff1aa43579e600102600019166200022b640100000000026200292c176401000000009004565b905090565b600062000160620000f8640100000000026401000000009004565b146040805190810160405280601881526020017f494e49545f414c52454144595f494e495449414c495a45440000000000000000815250901515620001dd576040517f08c379a0000000000000000000000000000000000000000000000000000000008152600401620001d4919062000279565b60405180910390fd5b5062000228817febb05b386a8d34882b8711d156f463690983dc47815980fb82aeeff1aa43579e600102600019166200023664010000000002620033bd179091906401000000009004565b50565b600081549050919050565b8082555050565b60006200024a826200029d565b80845262000260816020860160208601620002a8565b6200026b81620002de565b602085010191505092915050565b600060208201905081810360008301526200029581846200023d565b905092915050565b600081519050919050565b60005b83811015620002c8578082015181840152602081019050620002ab565b83811115620002d8576000848401525b50505050565b6000601f19601f8301169050919050565b615e0280620002ff6000396000f3006080604052600436106101a1576000357c0100000000000000000000000000000000000000000000000000000000900463ffffffff1680630803fac0146101a65780630e732bf2146101d157806312ddd3c1146102175780631703a018146102545780631c6330871461027f5780632914b9bd146102bd57806332f0a3b5146102fa5780633b2f7a5c146103255780634901f6bc14610362578063555985331461038d57806357f887dd146103b65780636e39432f146103df5780637a1ac61e146104245780637e7db6e11461044d57806380afdea81461048a57806382116aff146104b55780638a989dfa146104f25780638b3dd7491461052f5780638b68b6a21461055a5780639d4941d814610597578063a1658fad146105c0578063a479e508146105fd578063ac67523114610628578063bf32aed314610665578063cf61ee3d146106a2578063d49b10e5146106df578063d4aae0c414610708578063dc8452cd14610733578063de4796ed1461075e578063e26700b014610789578063e70b68a5146107b2578063fc0c546a146107db578063fc157cb414610806575b600080fd5b3480156101b257600080fd5b506101bb610831565b6040516101c8919061552d565b60405180910390f35b3480156101dd57600080fd5b506101f860048036036101f39190810190614bec565b61085c565b60405161020e9a999897969594939291906159c3565b60405180910390f35b34801561022357600080fd5b5061023e60048036036102399190810190614dc5565b6108ca565b60405161024b919061552d565b60405180910390f35b34801561026057600080fd5b50610269610ac9565b60405161027691906158c9565b60405180910390f35b34801561028b57600080fd5b506102a660048036036102a19190810190614c28565b610acf565b6040516102b492919061572d565b60405180910390f35b3480156102c957600080fd5b506102e460048036036102df9190810190614ca0565b610b1a565b6040516102f191906155ae565b60405180910390f35b34801561030657600080fd5b5061030f610bd1565b60405161031c919061549d565b60405180910390f35b34801561033157600080fd5b5061034c60048036036103479190810190614d89565b610c7b565b6040516103599190615891565b60405180910390f35b34801561036e57600080fd5b50610377610e01565b6040516103849190615548565b60405180910390f35b34801561039957600080fd5b506103b460048036036103af9190810190614d89565b610e3a565b005b3480156103c257600080fd5b506103dd60048036036103d89190810190614d0a565b610f1a565b005b3480156103eb57600080fd5b5061040660048036036104019190810190614bec565b610fac565b60405161041b99989796959493929190615936565b60405180910390f35b34801561043057600080fd5b5061044b60048036036104469190810190614e63565b611014565b005b34801561045957600080fd5b50610474600480360361046f9190810190614b33565b611178565b604051610481919061552d565b60405180910390f35b34801561049657600080fd5b5061049f611183565b6040516104ac9190615548565b60405180910390f35b3480156104c157600080fd5b506104dc60048036036104d79190810190614d89565b6111ba565b6040516104e991906158ad565b60405180910390f35b3480156104fe57600080fd5b5061051960048036036105149190810190614c28565b61134a565b6040516105269190615712565b60405180910390f35b34801561053b57600080fd5b50610544611386565b60405161055191906158c9565b60405180910390f35b34801561056657600080fd5b50610581600480360361057c9190810190614dc5565b6113bd565b60405161058e919061552d565b60405180910390f35b3480156105a357600080fd5b506105be60048036036105b99190810190614b33565b6115bc565b005b3480156105cc57600080fd5b506105e760048036036105e29190810190614b85565b6118c0565b6040516105f4919061552d565b60405180910390f35b34801561060957600080fd5b506106126119ed565b60405161061f91906155c9565b60405180910390f35b34801561063457600080fd5b5061064f600480360361064a9190810190614d89565b611aef565b60405161065c9190615778565b60405180910390f35b34801561067157600080fd5b5061068c60048036036106879190810190614d89565b611c49565b604051610699919061552d565b60405180910390f35b3480156106ae57600080fd5b506106c960048036036106c49190810190614d89565b611da5565b6040516106d6919061552d565b60405180910390f35b3480156106eb57600080fd5b5061070660048036036107019190810190614d89565b6120fa565b005b34801561071457600080fd5b5061071d6121da565b60405161072a91906155e4565b60405180910390f35b34801561073f57600080fd5b50610748612211565b60405161075591906158c9565b60405180910390f35b34801561076a57600080fd5b50610773612217565b604051610780919061552d565b60405180910390f35b34801561079557600080fd5b506107b060048036036107ab9190810190614d89565b612248565b005b3480156107be57600080fd5b506107d960048036036107d49190810190614e14565b612328565b005b3480156107e757600080fd5b506107f0612508565b6040516107fd91906156dc565b60405180910390f35b34801561081257600080fd5b5061081b61252d565b6040516108289190615a5f565b60405180910390f35b60008061083c611386565b905060008114158015610856575080610853612539565b10155b91505090565b6004602052816000526040600020602052806000526040600020600091509150508060000154908060010154908060020154908060030154908060040154908060050154908060060154908060070154908060080154908060090160009054906101000a900460ff1690508a565b60008084846000600460008473ffffffffffffffffffffffffffffffffffffffff1673ffffffffffffffffffffffffffffffffffffffff168152602001908152602001600020600083815260200190815260200160002060000154111515610967576040517f08c379a000000000000000000000000000000000000000000000000000000000815260040161095e906157fa565b60405180910390fd5b600460008873ffffffffffffffffffffffffffffffffffffffff1673ffffffffffffffffffffffffffffffffffffffff16815260200190815260200160002060008781526020019081526020016000209250600060028111156109c657fe5b8360090160009054906101000a900460ff1660028111156109e357fe5b148015610abd575060008060009054906101000a900473ffffffffffffffffffffffffffffffffffffffff1673ffffffffffffffffffffffffffffffffffffffff16634ee2cd7e8786600101546040518363ffffffff167c0100000000000000000000000000000000000000000000000000000000028152600401610a69929190615504565b602060405180830381600087803b158015610a8357600080fd5b505af1158015610a97573d6000803e3d6000fd5b505050506040513d601f19601f82011682018060405250610abb9190810190614f34565b115b93505050509392505050565b60025481565b600660205282600052604060002060205281600052604060002060205280600052604060002060009250925050508060000160009054906101000a900460ff16908060010154905082565b6000610b246119ed565b73ffffffffffffffffffffffffffffffffffffffff166304bf2a7f836040518263ffffffff167c0100000000000000000000000000000000000000000000000000000000028152600401610b78919061558c565b602060405180830381600087803b158015610b9257600080fd5b505af1158015610ba6573d6000803e3d6000fd5b505050506040513d601f19601f82011682018060405250610bca9190810190614ce1565b9050919050565b6000610bdb6121da565b73ffffffffffffffffffffffffffffffffffffffff166332f0a3b56040518163ffffffff167c0100000000000000000000000000000000000000000000000000000000028152600401602060405180830381600087803b158015610c3e57600080fd5b505af1158015610c52573d6000803e3d6000fd5b505050506040513d601f19601f82011682018060405250610c769190810190614b5c565b905090565b610c83614383565b82826000600360008473ffffffffffffffffffffffffffffffffffffffff1673ffffffffffffffffffffffffffffffffffffffff168152602001908152602001600020600083815260200190815260200160002060000154111515610d1d576040517f08c379a0000000000000000000000000000000000000000000000000000000008152600401610d149061581a565b60405180910390fd5b600360008673ffffffffffffffffffffffffffffffffffffffff1673ffffffffffffffffffffffffffffffffffffffff1681526020019081526020016000206000858152602001908152602001600020610120604051908101604052908160008201548152602001600182015481526020016002820154815260200160038201548152602001600482015481526020016005820154815260200160068201548152602001600782015481526020016008820160009054906101000a900460ff166002811115610de857fe5b6002811115610df357fe5b815250509250505092915050565b60405180807f5550444154455f504152414d45544552535f524f4c45000000000000000000008152506016019050604051809103902081565b610e42610831565b6040805190810160405280601481526020017f494e49545f4e4f545f494e495449414c495a4544000000000000000000000000815250901515610ebb576040517f08c379a0000000000000000000000000000000000000000000000000000000008152600401610eb29190615756565b60405180910390fd5b508181610ec98282336108ca565b1515610f0a576040517f08c379a0000000000000000000000000000000000000000000000000000000008152600401610f019061579a565b60405180910390fd5b610f148484612541565b50505050565b610f22610831565b6040805190810160405280601481526020017f494e49545f4e4f545f494e495449414c495a4544000000000000000000000000815250901515610f9b576040517f08c379a0000000000000000000000000000000000000000000000000000000008152600401610f929190615756565b60405180910390fd5b50610fa78383836125a2565b505050565b6003602052816000526040600020602052806000526040600020600091509150508060000154908060010154908060020154908060030154908060040154908060050154908060060154908060070154908060080160009054906101000a900460ff16905089565b600061101e611386565b146040805190810160405280601881526020017f494e49545f414c52454144595f494e495449414c495a45440000000000000000815250901515611098576040517f08c379a000000000000000000000000000000000000000000000000000000000815260040161108f9190615756565b60405180910390fd5b50606482111580156110aa5750818111155b15156110eb576040517f08c379a00000000000000000000000000000000000000000000000000000000081526004016110e2906157da565b60405180910390fd5b6110f36127ac565b826000806101000a81548173ffffffffffffffffffffffffffffffffffffffff021916908373ffffffffffffffffffffffffffffffffffffffff16021790555061114d662386f26fc100008361287490919063ffffffff16565b60028190555061116d662386f26fc100008261287490919063ffffffff16565b600181905550505050565b600060019050919050565b60006111b57fd625496217aa6a3453eecb9c3489dc5a53e6c67b444329ea2b2cbc9ff547639b60010260001916612921565b905090565b6111c26143db565b82826000600460008473ffffffffffffffffffffffffffffffffffffffff1673ffffffffffffffffffffffffffffffffffffffff16815260200190815260200160002060008381526020019081526020016000206000015411151561125c576040517f08c379a0000000000000000000000000000000000000000000000000000000008152600401611253906157fa565b60405180910390fd5b600460008673ffffffffffffffffffffffffffffffffffffffff1673ffffffffffffffffffffffffffffffffffffffff168152602001908152602001600020600085815260200190815260200160002061014060405190810160405290816000820154815260200160018201548152602001600282015481526020016003820154815260200160048201548152602001600582015481526020016006820154815260200160078201548152602001600882015481526020016009820160009054906101000a900460ff16600281111561133157fe5b600281111561133c57fe5b815250509250505092915050565b6005602052826000526040600020602052816000526040600020602052806000526040600020600092509250509054906101000a900460ff1681565b60006113b87febb05b386a8d34882b8711d156f463690983dc47815980fb82aeeff1aa43579e6001026000191661292c565b905090565b60008084846000600360008473ffffffffffffffffffffffffffffffffffffffff1673ffffffffffffffffffffffffffffffffffffffff16815260200190815260200160002060008381526020019081526020016000206000015411151561145a576040517f08c379a00000000000000000000000000000000000000000000000000000000081526004016114519061581a565b60405180910390fd5b600360008873ffffffffffffffffffffffffffffffffffffffff1673ffffffffffffffffffffffffffffffffffffffff16815260200190815260200160002060008781526020019081526020016000209250600060028111156114b957fe5b8360080160009054906101000a900460ff1660028111156114d657fe5b1480156115b0575060008060009054906101000a900473ffffffffffffffffffffffffffffffffffffffff1673ffffffffffffffffffffffffffffffffffffffff16634ee2cd7e8786600101546040518363ffffffff167c010000000000000000000000000000000000000000000000000000000002815260040161155c929190615504565b602060405180830381600087803b15801561157657600080fd5b505af115801561158a573d6000803e3d6000fd5b505050506040513d601f19601f820116820180604052506115ae9190810190614f34565b115b93505050509392505050565b6000806115c883611178565b6040805190810160405280601281526020017f5245434f5645525f444953414c4c4f5745440000000000000000000000000000815250901515611641576040517f08c379a00000000000000000000000000000000000000000000000000000000081526004016116389190615756565b60405180910390fd5b5061164a610bd1565b915061165582612937565b6040805190810160405280601a81526020017f5245434f5645525f5641554c545f4e4f545f434f4e54524143540000000000008152509015156116ce576040517f08c379a00000000000000000000000000000000000000000000000000000000081526004016116c59190615756565b60405180910390fd5b50600073ffffffffffffffffffffffffffffffffffffffff168373ffffffffffffffffffffffffffffffffffffffff161415611767578173ffffffffffffffffffffffffffffffffffffffff166108fc3073ffffffffffffffffffffffffffffffffffffffff16319081150290604051600060405180830381858888f19350505050158015611761573d6000803e3d6000fd5b506118bb565b8273ffffffffffffffffffffffffffffffffffffffff166370a08231306040518263ffffffff167c01000000000000000000000000000000000000000000000000000000000281526004016117bc91906156f7565b602060405180830381600087803b1580156117d657600080fd5b505af11580156117ea573d6000803e3d6000fd5b505050506040513d601f19601f8201168201806040525061180e9190810190614f34565b90508273ffffffffffffffffffffffffffffffffffffffff1663a9059cbb83836040518363ffffffff167c0100000000000000000000000000000000000000000000000000000000028152600401611867929190615504565b602060405180830381600087803b15801561188157600080fd5b505af1158015611895573d6000803e3d6000fd5b505050506040513d601f19601f820116820180604052506118b99190810190614c77565b505b505050565b600080606060006118cf610831565b15156118de57600093506119e3565b6118e66121da565b9250600073ffffffffffffffffffffffffffffffffffffffff168373ffffffffffffffffffffffffffffffffffffffff16141561192657600093506119e3565b602085510290508491508082528273ffffffffffffffffffffffffffffffffffffffff1663fdef9106883089866040518563ffffffff167c010000000000000000000000000000000000000000000000000000000002815260040161198e94939291906154b8565b602060405180830381600087803b1580156119a857600080fd5b505af11580156119bc573d6000803e3d6000fd5b505050506040513d601f19601f820116820180604052506119e09190810190614c77565b93505b5050509392505050565b6000806119f86121da565b73ffffffffffffffffffffffffffffffffffffffff1663be00bbd87fd6f028ca0e8edb4a8c9757ca4fdccab25fa1e0317da1188108f7d2dee14902fb6001027fddbcfd564f642ab5627cf68b9b7d374fb4f8a36e941a75d89c87998cef03bd616001026040518363ffffffff167c0100000000000000000000000000000000000000000000000000000000028152600401611a94929190615563565b602060405180830381600087803b158015611aae57600080fd5b505af1158015611ac2573d6000803e3d6000fd5b505050506040513d601f19601f82011682018060405250611ae69190810190614b5c565b90508091505090565b606082826000600360008473ffffffffffffffffffffffffffffffffffffffff1673ffffffffffffffffffffffffffffffffffffffff168152602001908152602001600020600083815260200190815260200160002060000154111515611b8b576040517f08c379a0000000000000000000000000000000000000000000000000000000008152600401611b829061581a565b60405180910390fd5b8473ffffffffffffffffffffffffffffffffffffffff1663fec7d70b856040518263ffffffff167c0100000000000000000000000000000000000000000000000000000000028152600401611be091906158c9565b600060405180830381600087803b158015611bfa57600080fd5b505af1158015611c0e573d6000803e3d6000fd5b505050506040513d6000823e3d601f19601f82011682018060405250611c379190810190614eb2565b60000151600001519250505092915050565b60008083836000600460008473ffffffffffffffffffffffffffffffffffffffff1673ffffffffffffffffffffffffffffffffffffffff168152602001908152602001600020600083815260200190815260200160002060000154111515611ce6576040517f08c379a0000000000000000000000000000000000000000000000000000000008152600401611cdd906157fa565b60405180910390fd5b600460008773ffffffffffffffffffffffffffffffffffffffff1673ffffffffffffffffffffffffffffffffffffffff1681526020019081526020016000206000868152602001908152602001600020925060006002811115611d4557fe5b8360090160009054906101000a900460ff166002811115611d6257fe5b141515611d725760009350611d9c565b611d89836008015484600201548560030154612989565b15611d975760019350611d9c565b600093505b50505092915050565b600080611db061443a565b6000611dba614474565b86866000600360008473ffffffffffffffffffffffffffffffffffffffff1673ffffffffffffffffffffffffffffffffffffffff168152602001908152602001600020600083815260200190815260200160002060000154111515611e54576040517f08c379a0000000000000000000000000000000000000000000000000000000008152600401611e4b9061581a565b60405180910390fd5b600360008a73ffffffffffffffffffffffffffffffffffffffff1673ffffffffffffffffffffffffffffffffffffffff168152602001908152602001600020600089815260200190815260200160002095508873ffffffffffffffffffffffffffffffffffffffff1663fec7d70b87600001546040518263ffffffff167c0100000000000000000000000000000000000000000000000000000000028152600401611eff91906158c9565b600060405180830381600087803b158015611f1957600080fd5b505af1158015611f2d573d6000803e3d6000fd5b505050506040513d6000823e3d601f19601f82011682018060405250611f569190810190614eb2565b945060006002811115611f6557fe5b8660080160009054906101000a900460ff166002811115611f8257fe5b141515611f9257600096506120ee565b611fa9866007015487600201548860030154612989565b156120e957611fc5866005015487600201548860040154612989565b156120e057600093505b8460600151518410156120df578873ffffffffffffffffffffffffffffffffffffffff1663889bd35d86606001518681518110151561200a57fe5b906020019060200201516040518263ffffffff167c010000000000000000000000000000000000000000000000000000000002815260040161204c91906158c9565b600060405180830381600087803b15801561206657600080fd5b505af115801561207a573d6000803e3d6000fd5b505050506040513d6000823e3d601f19601f820116820180604052506120a39190810190614ef3565b9250600160048111156120b257fe5b836060015160048111156120c257fe5b1415156120d257600096506120ee565b8380600101945050611fcf565b5b600196506120ee565b600096505b50505050505092915050565b612102610831565b6040805190810160405280601481526020017f494e49545f4e4f545f494e495449414c495a454400000000000000000000000081525090151561217b576040517f08c379a00000000000000000000000000000000000000000000000000000000081526004016121729190615756565b60405180910390fd5b5081816121898282336113bd565b15156121ca576040517f08c379a00000000000000000000000000000000000000000000000000000000081526004016121c19061583a565b60405180910390fd5b6121d484846129de565b50505050565b600061220c7f4172f0f7d2289153072b0a6ca36959e0cbe2efc3afe50fc81636caa96338137b60010260001916612a3e565b905090565b60015481565b60007fffffffffffffffffffffffffffffffffffffffffffffffffffffffffffffffff612242611386565b14905090565b612250610831565b6040805190810160405280601481526020017f494e49545f4e4f545f494e495449414c495a45440000000000000000000000008152509015156122c9576040517f08c379a00000000000000000000000000000000000000000000000000000000081526004016122c09190615756565b60405180910390fd5b5081816122d78282336113bd565b1515612318576040517f08c379a000000000000000000000000000000000000000000000000000000000815260040161230f9061583a565b60405180910390fd5b6123228484612a49565b50505050565b612330610831565b6040805190810160405280601481526020017f494e49545f4e4f545f494e495449414c495a45440000000000000000000000008152509015156123a9576040517f08c379a00000000000000000000000000000000000000000000000000000000081526004016123a09190615756565b60405180910390fd5b5082826123b78282336108ca565b15156123f8576040517f08c379a00000000000000000000000000000000000000000000000000000000081526004016123ef9061579a565b60405180910390fd5b8484848273ffffffffffffffffffffffffffffffffffffffff1663889bd35d836040518263ffffffff167c010000000000000000000000000000000000000000000000000000000002815260040161245091906158c9565b600060405180830381600087803b15801561246a57600080fd5b505af115801561247e573d6000803e3d6000fd5b505050506040513d6000823e3d601f19601f820116820180604052506124a79190810190614ef3565b600001516020015181101515156124f3576040517f08c379a00000000000000000000000000000000000000000000000000000000081526004016124ea906157ba565b60405180910390fd5b6124fe888888612aa9565b5050505050505050565b6000809054906101000a900473ffffffffffffffffffffffffffffffffffffffff1681565b670de0b6b3a764000081565b600043905090565b61254f828260008033612b0d565b808273ffffffffffffffffffffffffffffffffffffffff167f21b055818c289a0776966d1f4b862b9f71d742681cc90611b5b08dd04f931b8733604051612596919061549d565b60405180910390a35050565b60006125ac61443a565b60008573ffffffffffffffffffffffffffffffffffffffff166331f7009686866040518363ffffffff167c010000000000000000000000000000000000000000000000000000000002815260040161260592919061585a565b602060405180830381600087803b15801561261f57600080fd5b505af1158015612633573d6000803e3d6000fd5b505050506040513d601f19601f820116820180604052506126579190810190614f34565b92508573ffffffffffffffffffffffffffffffffffffffff1663fec7d70b846040518263ffffffff167c01000000000000000000000000000000000000000000000000000000000281526004016126ae91906158c9565b600060405180830381600087803b1580156126c857600080fd5b505af11580156126dc573d6000803e3d6000fd5b505050506040513d6000823e3d601f19601f820116820180604052506127059190810190614eb2565b9150600090505b81606001515181101561274b5761273e8683606001518381518110151561272f57fe5b90602001906020020151612feb565b808060010191505061270c565b61275586846131ca565b828673ffffffffffffffffffffffffffffffffffffffff167f7fa5d1ac92146f74ddbebc254679a8e41cda6b732d19aa71b819018f48f0313d3360405161279c919061549d565b60405180910390a3505050505050565b60006127b6611386565b146040805190810160405280601881526020017f494e49545f414c52454144595f494e495449414c495a45440000000000000000815250901515612830576040517f08c379a00000000000000000000000000000000000000000000000000000000081526004016128279190615756565b60405180910390fd5b5061287261283c612539565b7febb05b386a8d34882b8711d156f463690983dc47815980fb82aeeff1aa43579e600102600019166133bd90919063ffffffff16565b565b6000806000841415612889576000915061291a565b828402905082848281151561289a57fe5b04146040805190810160405280601181526020017f4d4154485f4d554c5f4f564552464c4f57000000000000000000000000000000815250901515612915576040517f08c379a000000000000000000000000000000000000000000000000000000000815260040161290c9190615756565b60405180910390fd5b508091505b5092915050565b600081549050919050565b600081549050919050565b600080600073ffffffffffffffffffffffffffffffffffffffff168373ffffffffffffffffffffffffffffffffffffffff1614156129785760009150612983565b823b90506000811191505b50919050565b600080600084141561299e57600091506129d6565b836129c4670de0b6b3a764000067ffffffffffffffff168761287490919063ffffffff16565b8115156129cd57fe5b04905082811191505b509392505050565b6129eb82826000336133c4565b808273ffffffffffffffffffffffffffffffffffffffff167f765f3d8e266a9fa3317b8fcdbe47e2ee878db83230fe389d4bc83c72adc3b39f33604051612a32919061549d565b60405180910390a35050565b600081549050919050565b612a5682826001336133c4565b808273ffffffffffffffffffffffffffffffffffffffff167fad6ee225281f20a74c5e6e7947529076ca2b4639c983cc0539d57bfeda0afcc233604051612a9d919061549d565b60405180910390a35050565b612ab7838360018433612b0d565b818373ffffffffffffffffffffffffffffffffffffffff167f30c734dd2fc051e35d9c49d0950fe6fd43e42658c2397d489d4629cf029c2fd48333604051612b009291906158e4565b60405180910390a3505050565b6000806000600460008973ffffffffffffffffffffffffffffffffffffffff1673ffffffffffffffffffffffffffffffffffffffff168152602001908152602001600020600088815260200190815260200160002092506000809054906101000a900473ffffffffffffffffffffffffffffffffffffffff1673ffffffffffffffffffffffffffffffffffffffff16634ee2cd7e8585600101546040518363ffffffff167c0100000000000000000000000000000000000000000000000000000000028152600401612be0929190615504565b602060405180830381600087803b158015612bfa57600080fd5b505af1158015612c0e573d6000803e3d6000fd5b505050506040513d601f19601f82011682018060405250612c329190810190614f34565b9150600660008973ffffffffffffffffffffffffffffffffffffffff1673ffffffffffffffffffffffffffffffffffffffff168152602001908152602001600020600088815260200190815260200160002060008573ffffffffffffffffffffffffffffffffffffffff1673ffffffffffffffffffffffffffffffffffffffff168152602001908152602001600020905060006002811115612cd057fe5b8160000160009054906101000a900460ff166002811115612ced57fe5b141515612d1457612d0b82846008015461391990919063ffffffff16565b83600801819055505b60016002811115612d2157fe5b8160000160009054906101000a900460ff166002811115612d3e57fe5b1415612d9d57612d5b82846005015461391990919063ffffffff16565b8360050181905550612d90612d7d82600101548461287490919063ffffffff16565b846007015461391990919063ffffffff16565b8360070181905550612ded565b600280811115612da957fe5b8160000160009054906101000a900460ff166002811115612dc657fe5b1415612dec57612de382846006015461391990919063ffffffff16565b83600601819055505b5b8515612ec857612e0a8284600501546139a990919063ffffffff16565b8360050181905550612e3b612e28868461287490919063ffffffff16565b84600701546139a990919063ffffffff16565b836007018190555060018160000160006101000a81548160ff02191690836002811115612e6457fe5b0217905550848160010181905550868873ffffffffffffffffffffffffffffffffffffffff167f30c734dd2fc051e35d9c49d0950fe6fd43e42658c2397d489d4629cf029c2fd48787604051612ebb9291906158e4565b60405180910390a3612f67565b612edf8284600601546139a990919063ffffffff16565b836006018190555060028160000160006101000a81548160ff02191690836002811115612f0857fe5b021790555060008160010181905550868873ffffffffffffffffffffffffffffffffffffffff167f21b055818c289a0776966d1f4b862b9f71d742681cc90611b5b08dd04f931b8786604051612f5e919061549d565b60405180910390a35b612f7e8284600801546139a990919063ffffffff16565b83600801819055507f67f31659f141f0c2f72116eb452e307316e88a210cd462934e5215c762d0fa7c888886898987604051612fbf9695949392919061567b565b60405180910390a1612fd18888611c49565b15612fe157612fe08888613a39565b5b5050505050505050565b6000600460008473ffffffffffffffffffffffffffffffffffffffff1673ffffffffffffffffffffffffffffffffffffffff168152602001908152602001600020600083815260200190815260200160002090508181600001819055506001430381600101819055506000809054906101000a900473ffffffffffffffffffffffffffffffffffffffff1673ffffffffffffffffffffffffffffffffffffffff1663981b24d082600101546040518263ffffffff167c01000000000000000000000000000000000000000000000000000000000281526004016130ce91906158c9565b602060405180830381600087803b1580156130e857600080fd5b505af11580156130fc573d6000803e3d6000fd5b505050506040513d601f19601f820116820180604052506131209190810190614f34565b8160020181905550600254816003018190555060015481600401819055506000816005018190555060008160060181905550600081600701819055506000816008018190555060008160090160006101000a81548160ff0219169083600281111561318757fe5b02179055507fc80dfb75ae81bddc2353e7829374e3cdd75c0b514ebea75b04ebd43557d9385083836040516131bd9291906155ff565b60405180910390a1505050565b6000600360008473ffffffffffffffffffffffffffffffffffffffff1673ffffffffffffffffffffffffffffffffffffffff168152602001908152602001600020600083815260200190815260200160002090508181600001819055506001430381600101819055506000809054906101000a900473ffffffffffffffffffffffffffffffffffffffff1673ffffffffffffffffffffffffffffffffffffffff1663981b24d082600101546040518263ffffffff167c01000000000000000000000000000000000000000000000000000000000281526004016132ad91906158c9565b602060405180830381600087803b1580156132c757600080fd5b505af11580156132db573d6000803e3d6000fd5b505050506040513d601f19601f820116820180604052506132ff9190810190614f34565b81600201819055506002548160030181905550600154816004018190555060008160050181905550600081600601819055506000816007018190555060008160080160006101000a81548160ff0219169083600281111561335c57fe5b02179055507f459c0186854b229ea01639896d9758052452d4d6fe7a865172ff28c621b912cb83836040516133929291906155ff565b60405180910390a16133a58383336113bd565b156133b8576133b783836001336133c4565b5b505050565b8082555050565b6000806000600360008873ffffffffffffffffffffffffffffffffffffffff1673ffffffffffffffffffffffffffffffffffffffff168152602001908152602001600020600087815260200190815260200160002092506000809054906101000a900473ffffffffffffffffffffffffffffffffffffffff1673ffffffffffffffffffffffffffffffffffffffff16634ee2cd7e8585600101546040518363ffffffff167c0100000000000000000000000000000000000000000000000000000000028152600401613497929190615504565b602060405180830381600087803b1580156134b157600080fd5b505af11580156134c5573d6000803e3d6000fd5b505050506040513d601f19601f820116820180604052506134e99190810190614f34565b9150600560008873ffffffffffffffffffffffffffffffffffffffff1673ffffffffffffffffffffffffffffffffffffffff168152602001908152602001600020600087815260200190815260200160002060008573ffffffffffffffffffffffffffffffffffffffff1673ffffffffffffffffffffffffffffffffffffffff16815260200190815260200160002060009054906101000a900460ff1690506000600281111561359557fe5b8160028111156135a157fe5b1415156135c8576135bf82846007015461391990919063ffffffff16565b83600701819055505b600160028111156135d557fe5b8160028111156135e157fe5b141561360b576135fe82846005015461391990919063ffffffff16565b836005018190555061364a565b60028081111561361757fe5b81600281111561362357fe5b14156136495761364082846006015461391990919063ffffffff16565b83600601819055505b5b8415613776576136678284600501546139a990919063ffffffff16565b83600501819055506001600560008973ffffffffffffffffffffffffffffffffffffffff1673ffffffffffffffffffffffffffffffffffffffff168152602001908152602001600020600088815260200190815260200160002060008673ffffffffffffffffffffffffffffffffffffffff1673ffffffffffffffffffffffffffffffffffffffff16815260200190815260200160002060006101000a81548160ff0219169083600281111561371957fe5b021790555082600001548773ffffffffffffffffffffffffffffffffffffffff167fad6ee225281f20a74c5e6e7947529076ca2b4639c983cc0539d57bfeda0afcc286604051613769919061549d565b60405180910390a3613898565b61378d8284600601546139a990919063ffffffff16565b83600601819055506002600560008973ffffffffffffffffffffffffffffffffffffffff1673ffffffffffffffffffffffffffffffffffffffff168152602001908152602001600020600088815260200190815260200160002060008673ffffffffffffffffffffffffffffffffffffffff1673ffffffffffffffffffffffffffffffffffffffff16815260200190815260200160002060006101000a81548160ff0219169083600281111561383f57fe5b021790555082600001548773ffffffffffffffffffffffffffffffffffffffff167f765f3d8e266a9fa3317b8fcdbe47e2ee878db83230fe389d4bc83c72adc3b39f8660405161388f919061549d565b60405180910390a35b6138af8284600701546139a990919063ffffffff16565b83600701819055507ffc7e41801886fcb2f2ed05ea98f973fefd40c265b70ae68ef54e897c07e6a48587878688866040516138ee959493929190615628565b60405180910390a16139008787611da5565b156139105761390f8787613cf6565b5b50505050505050565b600080838311156040805190810160405280601281526020017f4d4154485f5355425f554e444552464c4f570000000000000000000000000000815250901515613999576040517f08c379a00000000000000000000000000000000000000000000000000000000081526004016139909190615756565b60405180910390fd5b5082840390508091505092915050565b6000808284019050838110156040805190810160405280601181526020017f4d4154485f4144445f4f564552464c4f57000000000000000000000000000000815250901515613a2e576040517f08c379a0000000000000000000000000000000000000000000000000000000008152600401613a259190615756565b60405180910390fd5b508091505092915050565b6000600460008473ffffffffffffffffffffffffffffffffffffffff1673ffffffffffffffffffffffffffffffffffffffff1681526020019081526020016000206000838152602001908152602001600020905060018160090160006101000a81548160ff02191690836002811115613aae57fe5b0217905550613aca816005015482600201548360040154612989565b15613b77578273ffffffffffffffffffffffffffffffffffffffff16636d5f5ca783613b0784600501548560070154613fe090919063ffffffff16565b6040518363ffffffff167c0100000000000000000000000000000000000000000000000000000000028152600401613b4092919061590d565b600060405180830381600087803b158015613b5a57600080fd5b505af1158015613b6e573d6000803e3d6000fd5b50505050613cb8565b613c30838473ffffffffffffffffffffffffffffffffffffffff1663889bd35d856040518263ffffffff167c0100000000000000000000000000000000000000000000000000000000028152600401613bd091906158c9565b600060405180830381600087803b158015613bea57600080fd5b505af1158015613bfe573d6000803e3d6000fd5b505050506040513d6000823e3d601f19601f82011682018060405250613c279190810190614ef3565b60800151614079565b8273ffffffffffffffffffffffffffffffffffffffff16636e0b314c836040518263ffffffff167c0100000000000000000000000000000000000000000000000000000000028152600401613c8591906158c9565b600060405180830381600087803b158015613c9f57600080fd5b505af1158015613cb3573d6000803e3d6000fd5b505050505b7f7a62334ca907cda9edac6f0e64f13251c06a45b9bca0cb82817346d4dd730f6a8383604051613ce99291906155ff565b60405180910390a1505050565b6000613d0061443a565b6000600360008673ffffffffffffffffffffffffffffffffffffffff1673ffffffffffffffffffffffffffffffffffffffff16815260200190815260200160002060008581526020019081526020016000209250613d6b836005015484600201548560040154612989565b15613dfc578473ffffffffffffffffffffffffffffffffffffffff1663ddf6fa9c856040518263ffffffff167c0100000000000000000000000000000000000000000000000000000000028152600401613dc591906158c9565b600060405180830381600087803b158015613ddf57600080fd5b505af1158015613df3573d6000803e3d6000fd5b50505050613f7a565b8473ffffffffffffffffffffffffffffffffffffffff1663fec7d70b856040518263ffffffff167c0100000000000000000000000000000000000000000000000000000000028152600401613e5191906158c9565b600060405180830381600087803b158015613e6b57600080fd5b505af1158015613e7f573d6000803e3d6000fd5b505050506040513d6000823e3d601f19601f82011682018060405250613ea89190810190614eb2565b9150600090505b816060015151811015613eee57613ee185836060015183815181101515613ed257fe5b906020019060200201516142cb565b8080600101915050613eaf565b8473ffffffffffffffffffffffffffffffffffffffff1663748b052c84600001546040518263ffffffff167c0100000000000000000000000000000000000000000000000000000000028152600401613f4791906158c9565b600060405180830381600087803b158015613f6157600080fd5b505af1158015613f75573d6000803e3d6000fd5b505050505b60018360080160006101000a81548160ff02191690836002811115613f9b57fe5b02179055507ff9e893896160019f494e6a908a16f04628a4a8a152ca59b6abea9ba8b14e4b6c8585604051613fd19291906155ff565b60405180910390a15050505050565b600080600083116040805190810160405280600d81526020017f4d4154485f4449565f5a45524f00000000000000000000000000000000000000815250901515614060576040517f08c379a00000000000000000000000000000000000000000000000000000000081526004016140579190615756565b60405180910390fd5b50828481151561406c57fe5b0490508091505092915050565b600061408361443a565b6000600360008673ffffffffffffffffffffffffffffffffffffffff1673ffffffffffffffffffffffffffffffffffffffff168152602001908152602001600020600085815260200190815260200160002092508473ffffffffffffffffffffffffffffffffffffffff1663fec7d70b856040518263ffffffff167c010000000000000000000000000000000000000000000000000000000002815260040161412c91906158c9565b600060405180830381600087803b15801561414657600080fd5b505af115801561415a573d6000803e3d6000fd5b505050506040513d6000823e3d601f19601f820116820180604052506141839190810190614eb2565b915060028360080160006101000a81548160ff021916908360028111156141a657fe5b0217905550600090505b81606001515181101561428b57600160028111156141ca57fe5b600460008773ffffffffffffffffffffffffffffffffffffffff1673ffffffffffffffffffffffffffffffffffffffff168152602001908152602001600020600084606001518481518110151561421d57fe5b90602001906020020151815260200190815260200160002060090160009054906101000a900460ff16600281111561425157fe5b14151561427e5761427d8583606001518381518110151561426e57fe5b906020019060200201516142cb565b5b80806001019150506141b0565b7f430ff3f9c6554faf1a1b8c7cbf1bf5c479c8eb64538239f8991be60a3bc15e0f85856040516142bc9291906155ff565b60405180910390a15050505050565b6000600460008473ffffffffffffffffffffffffffffffffffffffff1673ffffffffffffffffffffffffffffffffffffffff1681526020019081526020016000206000838152602001908152602001600020905060028160090160006101000a81548160ff0219169083600281111561434057fe5b02179055507f8c6d65bc51d03af5d344851f84b2f3d571456b100242ab79f91a1dae16964acf83836040516143769291906155ff565b60405180910390a1505050565b610120604051908101604052806000815260200160008152602001600081526020016000815260200160008152602001600081526020016000815260200160008152602001600060028111156143d557fe5b81525090565b610140604051908101604052806000815260200160008152602001600081526020016000815260200160008152602001600081526020016000815260200160008152602001600081526020016000600281111561443457fe5b81525090565b60806040519081016040528061444e6144b5565b8152602001600081526020016000600381111561446757fe5b8152602001606081525090565b60e0604051908101604052806144886144c9565b81526020016000815260200160008152602001600060048111156144a857fe5b8152602001600081525090565b602060405190810160405280606081525090565b606060405190810160405280600073ffffffffffffffffffffffffffffffffffffffff16815260200160008152602001606081525090565b600061450d8235615c3d565b905092915050565b60006145218251615c3d565b905092915050565b600082601f830112151561453c57600080fd5b813561454f61454a82615aa7565b615a7a565b9150818183526020840193506020810190508360005b83811015614595578135860161457b88826148d7565b845260208401935060208301925050600181019050614565565b5050505092915050565b600082601f83011215156145b257600080fd5b81516145c56145c082615acf565b615a7a565b915081818352602084019350602081019050838560208402820111156145ea57600080fd5b60005b8381101561461a57816146008882614b1f565b8452602084019350602083019250506001810190506145ed565b5050505092915050565b600082601f830112151561463757600080fd5b813561464a61464582615af7565b615a7a565b9150818183526020840193506020810190508385602084028201111561466f57600080fd5b60005b8381101561469f57816146858882614b0b565b845260208401935060208301925050600181019050614672565b5050505092915050565b60006146b58251615c5d565b905092915050565b60006146c98235615c69565b905092915050565b600082601f83011215156146e457600080fd5b81356146f76146f282615b1f565b615a7a565b9150808252602083016020830185838301111561471357600080fd5b61471e838284615d75565b50505092915050565b60006147338251615c73565b905092915050565b60006147478235615c85565b905092915050565b600061475b8235615c97565b905092915050565b600061476f8251615ca9565b905092915050565b60006147838251615cc2565b905092915050565b600082601f830112151561479e57600080fd5b81356147b16147ac82615b4b565b615a7a565b915080825260208301602083018583830111156147cd57600080fd5b6147d8838284615d75565b50505092915050565b600082601f83011215156147f457600080fd5b815161480761480282615b4b565b615a7a565b9150808252602083016020830185838301111561482357600080fd5b61482e838284615d84565b50505092915050565b60006020828403121561484957600080fd5b6148536020615a7a565b9050600082015167ffffffffffffffff81111561486f57600080fd5b61487b848285016147e1565b60008301525092915050565b60006020828403121561489957600080fd5b6148a36020615a7a565b9050600082013567ffffffffffffffff8111156148bf57600080fd5b6148cb8482850161478b565b60008301525092915050565b6000606082840312156148e957600080fd5b6148f36060615a7a565b9050600061490384828501614501565b600083015250602061491784828501614b0b565b602083015250604082013567ffffffffffffffff81111561493757600080fd5b6149438482850161478b565b60408301525092915050565b60006060828403121561496157600080fd5b61496b6060615a7a565b9050600061497b84828501614515565b600083015250602061498f84828501614b1f565b602083015250604082015167ffffffffffffffff8111156149af57600080fd5b6149bb848285016147e1565b60408301525092915050565b6000608082840312156149d957600080fd5b6149e36080615a7a565b9050600082015167ffffffffffffffff8111156149ff57600080fd5b614a0b84828501614837565b6000830152506020614a1f84828501614b1f565b6020830152506040614a3384828501614763565b604083015250606082015167ffffffffffffffff811115614a5357600080fd5b614a5f8482850161459f565b60608301525092915050565b600060a08284031215614a7d57600080fd5b614a8760a0615a7a565b9050600082015167ffffffffffffffff811115614aa357600080fd5b614aaf8482850161494f565b6000830152506020614ac384828501614b1f565b6020830152506040614ad784828501614b1f565b6040830152506060614aeb84828501614777565b6060830152506080614aff84828501614b1f565b60808301525092915050565b6000614b178235615cdb565b905092915050565b6000614b2b8251615cdb565b905092915050565b600060208284031215614b4557600080fd5b6000614b5384828501614501565b91505092915050565b600060208284031215614b6e57600080fd5b6000614b7c84828501614515565b91505092915050565b600080600060608486031215614b9a57600080fd5b6000614ba886828701614501565b9350506020614bb9868287016146bd565b925050604084013567ffffffffffffffff811115614bd657600080fd5b614be286828701614624565b9150509250925092565b60008060408385031215614bff57600080fd5b6000614c0d85828601614501565b9250506020614c1e85828601614b0b565b9150509250929050565b600080600060608486031215614c3d57600080fd5b6000614c4b86828701614501565b9350506020614c5c86828701614b0b565b9250506040614c6d86828701614501565b9150509250925092565b600060208284031215614c8957600080fd5b6000614c97848285016146a9565b91505092915050565b600060208284031215614cb257600080fd5b600082013567ffffffffffffffff811115614ccc57600080fd5b614cd8848285016146d1565b91505092915050565b600060208284031215614cf357600080fd5b6000614d0184828501614727565b91505092915050565b600080600060608486031215614d1f57600080fd5b6000614d2d8682870161473b565b935050602084013567ffffffffffffffff811115614d4a57600080fd5b614d5686828701614887565b925050604084013567ffffffffffffffff811115614d7357600080fd5b614d7f86828701614529565b9150509250925092565b60008060408385031215614d9c57600080fd5b6000614daa8582860161473b565b9250506020614dbb85828601614b0b565b9150509250929050565b600080600060608486031215614dda57600080fd5b6000614de88682870161473b565b9350506020614df986828701614b0b565b9250506040614e0a86828701614501565b9150509250925092565b600080600060608486031215614e2957600080fd5b6000614e378682870161473b565b9350506020614e4886828701614b0b565b9250506040614e5986828701614b0b565b9150509250925092565b600080600060608486031215614e7857600080fd5b6000614e868682870161474f565b9350506020614e9786828701614b0b565b9250506040614ea886828701614b0b565b9150509250925092565b600060208284031215614ec457600080fd5b600082015167ffffffffffffffff811115614ede57600080fd5b614eea848285016149c7565b91505092915050565b600060208284031215614f0557600080fd5b600082015167ffffffffffffffff811115614f1f57600080fd5b614f2b84828501614a6b565b91505092915050565b600060208284031215614f4657600080fd5b6000614f5484828501614b1f565b91505092915050565b614f6681615bbd565b82525050565b6000614f7782615b84565b80845260208401935083602082028501614f9085615b77565b60005b84811015614fc9578383038852614fab8383516152ac565b9250614fb682615bb0565b9150602088019750600181019050614f93565b508196508694505050505092915050565b614fe381615bdd565b82525050565b614ff281615be9565b82525050565b600061500382615b8f565b808452615017816020860160208601615d84565b61502081615db7565b602085010191505092915050565b61503781615ce5565b82525050565b61504681615cf7565b82525050565b61505581615d09565b82525050565b61506481615d1b565b82525050565b61507381615d2d565b82525050565b61508281615d3f565b82525050565b61509181615d51565b82525050565b6150a081615d63565b82525050565b60006150b182615ba5565b8084526150c5816020860160208601615d84565b6150ce81615db7565b602085010191505092915050565b60006150e782615b9a565b8084526150fb816020860160208601615d84565b61510481615db7565b602085010191505092915050565b6000601982527f73656e6465722063616e6e6f7420766f7465206f6e2052464c000000000000006020830152604082019050919050565b6000602082527f76616c756520697320696e666572696f7220746f2052464c206d696e696d756d6020830152604082019050919050565b6000602682527f696e697469616c697a6174696f6e20706172616d6574657273206f7574206f6660208301527f20626f756e6400000000000000000000000000000000000000000000000000006040830152606082019050919050565b6000601282527f52464c20646f6573206e6f7420657869737400000000000000000000000000006020830152604082019050919050565b6000601282527f52464920646f6573206e6f7420657869737400000000000000000000000000006020830152604082019050919050565b6000601982527f73656e6465722063616e6e6f7420766f7465206f6e20524649000000000000006020830152604082019050919050565b6000602083016000830151848203600086015261529f82826150dc565b9150508091505092915050565b60006060830160008301516152c46000860182614f5d565b5060208301516152d7602086018261547f565b50604083015184820360408601526152ef82826150dc565b9150508091505092915050565b61012082016000820151615313600085018261547f565b506020820151615326602085018261547f565b506040820151615339604085018261547f565b50606082015161534c606085018261547f565b50608082015161535f608085018261547f565b5060a082015161537260a085018261547f565b5060c082015161538560c085018261547f565b5060e082015161539860e085018261547f565b506101008201516153ad610100850182615088565b50505050565b610140820160008201516153ca600085018261547f565b5060208201516153dd602085018261547f565b5060408201516153f0604085018261547f565b506060820151615403606085018261547f565b506080820151615416608085018261547f565b5060a082015161542960a085018261547f565b5060c082015161543c60c085018261547f565b5060e082015161544f60e085018261547f565b5061010082015161546461010085018261547f565b50610120820151615479610120850182615088565b50505050565b61548881615c1f565b82525050565b61549781615c29565b82525050565b60006020820190506154b26000830184614f5d565b92915050565b60006080820190506154cd6000830187614f5d565b6154da6020830186614f5d565b6154e76040830185614fe9565b81810360608301526154f98184614ff8565b905095945050505050565b60006040820190506155196000830185614f5d565b615526602083018461547f565b9392505050565b60006020820190506155426000830184614fda565b92915050565b600060208201905061555d6000830184614fe9565b92915050565b60006040820190506155786000830185614fe9565b6155856020830184614fe9565b9392505050565b600060208201905081810360008301526155a68184614ff8565b905092915050565b60006020820190506155c3600083018461502e565b92915050565b60006020820190506155de600083018461503d565b92915050565b60006020820190506155f9600083018461504c565b92915050565b6000604082019050615614600083018561505b565b615621602083018461547f565b9392505050565b600060a08201905061563d600083018861505b565b61564a602083018761547f565b6156576040830186614f5d565b6156646060830185614fda565b615671608083018461547f565b9695505050505050565b600060c082019050615690600083018961505b565b61569d602083018861547f565b6156aa6040830187614f5d565b6156b76060830186614fda565b6156c4608083018561547f565b6156d160a083018461547f565b979650505050505050565b60006020820190506156f1600083018461506a565b92915050565b600060208201905061570c6000830184615079565b92915050565b60006020820190506157276000830184615097565b92915050565b60006040820190506157426000830185615097565b61574f602083018461547f565b9392505050565b6000602082019050818103600083015261577081846150dc565b905092915050565b6000602082019050818103600083015261579281846150a6565b905092915050565b600060208201905081810360008301526157b381615112565b9050919050565b600060208201905081810360008301526157d381615149565b9050919050565b600060208201905081810360008301526157f381615180565b9050919050565b60006020820190508181036000830152615813816151dd565b9050919050565b6000602082019050818103600083015261583381615214565b9050919050565b600060208201905081810360008301526158538161524b565b9050919050565b600060408201905081810360008301526158748185615282565b905081810360208301526158888184614f6c565b90509392505050565b6000610120820190506158a760008301846152fc565b92915050565b6000610140820190506158c360008301846153b3565b92915050565b60006020820190506158de600083018461547f565b92915050565b60006040820190506158f9600083018561547f565b6159066020830184614f5d565b9392505050565b6000604082019050615922600083018561547f565b61592f602083018461547f565b9392505050565b60006101208201905061594c600083018c61547f565b615959602083018b61547f565b615966604083018a61547f565b615973606083018961547f565b615980608083018861547f565b61598d60a083018761547f565b61599a60c083018661547f565b6159a760e083018561547f565b6159b5610100830184615088565b9a9950505050505050505050565b6000610140820190506159d9600083018d61547f565b6159e6602083018c61547f565b6159f3604083018b61547f565b615a00606083018a61547f565b615a0d608083018961547f565b615a1a60a083018861547f565b615a2760c083018761547f565b615a3460e083018661547f565b615a4261010083018561547f565b615a50610120830184615088565b9b9a5050505050505050505050565b6000602082019050615a74600083018461548e565b92915050565b6000604051905081810181811067ffffffffffffffff82111715615a9d57600080fd5b8060405250919050565b600067ffffffffffffffff821115615abe57600080fd5b602082029050602081019050919050565b600067ffffffffffffffff821115615ae657600080fd5b602082029050602081019050919050565b600067ffffffffffffffff821115615b0e57600080fd5b602082029050602081019050919050565b600067ffffffffffffffff821115615b3657600080fd5b601f19601f8301169050602081019050919050565b600067ffffffffffffffff821115615b6257600080fd5b601f19601f8301169050602081019050919050565b6000602082019050919050565b600081519050919050565b600081519050919050565b600081519050919050565b600081519050919050565b6000602082019050919050565b600073ffffffffffffffffffffffffffffffffffffffff82169050919050565b60008115159050919050565b6000819050919050565b6000600382101515615c0157fe5b819050919050565b6000600382101515615c1757fe5b819050919050565b6000819050919050565b600067ffffffffffffffff82169050919050565b600073ffffffffffffffffffffffffffffffffffffffff82169050919050565b60008115159050919050565b6000819050919050565b6000615c7e82615bbd565b9050919050565b6000615c9082615bbd565b9050919050565b6000615ca282615bbd565b9050919050565b6000600482101515615cba57600080fd5b819050919050565b6000600582101515615cd357600080fd5b819050919050565b6000819050919050565b6000615cf082615bbd565b9050919050565b6000615d0282615bbd565b9050919050565b6000615d1482615bbd565b9050919050565b6000615d2682615bbd565b9050919050565b6000615d3882615bbd565b9050919050565b6000615d4a82615bbd565b9050919050565b6000615d5c82615bf3565b9050919050565b6000615d6e82615c09565b9050919050565b82818337600083830152505050565b60005b83811015615da2578082015181840152602081019050615d87565b83811115615db1576000848401525b50505050565b6000601f19601f83011690509190505600a265627a7a72305820cb15a383cb8e959d9bb443a97065649cef9e77ea95206c63115c410d73243c766c6578706572696d656e74616cf50037",
  "source": "pragma solidity ^0.4.24;\npragma experimental ABIEncoderV2;\n\nimport \"@aragon/os/contracts/apps/AragonApp.sol\";\nimport \"@aragon/os/contracts/lib/math/SafeMath.sol\";\nimport \"@aragon/os/contracts/lib/math/SafeMath64.sol\";\nimport \"@aragon/apps-shared-minime/contracts/MiniMeToken.sol\";\nimport \"@pando/core/contracts/organism/IOrganism.sol\";\nimport \"@pando/core/contracts/scheme/IPandoScheme.sol\";\n\n\ncontract DemocracyScheme is IPandoScheme, AragonApp {\n    using SafeMath for uint256;\n    using SafeMath64 for uint64;\n\n    bytes32 public constant UPDATE_PARAMETERS_ROLE = keccak256(\"UPDATE_PARAMETERS_ROLE\");\n\n    uint64 public constant PCT_BASE = 10 ** 18; // 0% = 0; 1% = 10^16; 100% = 10^18\n\n    enum VoteState  { Pending, Executed, Cancelled }\n    enum VoterState { Absent, Yea, Nay }\n\n    struct RFLBallot {\n        VoterState state;\n        uint256    value;\n    }\n\n    struct RFIVote {\n        uint256   RFIid;\n        uint256   blockstamp;\n        uint256   supply;\n        uint256   quorum;\n        uint256   required;\n        uint256   yea;\n        uint256   nay;\n        uint256   participation;\n        VoteState state;\n    }\n\n    struct RFLVote {\n        uint256   RFLid;\n        uint256   blockstamp;\n        uint256   supply;\n        uint256   quorum;\n        uint256   required;\n        uint256   yea;\n        uint256   nay;\n        uint256   total;\n        uint256   participation;\n        VoteState state;\n    }\n\n    MiniMeToken public token;\n    uint256     public required;\n    uint256     public quorum;\n\n    mapping(address => mapping(uint256 => RFIVote)) public RFIVotes; // mapping RFIs to related vote\n    mapping(address => mapping(uint256 => RFLVote)) public RFLVotes; // mapping RFLs to related vote\n\n    mapping(address => mapping(uint256 => mapping(address => VoterState))) public RFIVotesBallots;\n    mapping(address => mapping(uint256 => mapping(address => RFLBallot)))  public RFLVotesBallots;\n\n    event NewRFIVote(IOrganism organism, uint256 id);\n    event CastRFIVote(IOrganism organism, uint256 id, address voter, bool supports, uint256 stake);\n    event CancelRFIVote(IOrganism organism, uint256 id);\n    event ExecuteRFIVote(IOrganism organism, uint256 id);\n\n    event NewRFLVote(IOrganism organism, uint256 id);\n    event CastRFLVote(IOrganism organism, uint256 id, address voter, bool supports, uint256 value, uint256 stake);\n    event CancelRFLVote(IOrganism organism, uint256 id);\n    event ExecuteRFLVote(IOrganism organism, uint256 id);\n\n    modifier RFIVoteExists(IOrganism _organism, uint256 _RFIid) {\n        require(RFIVotes[address(_organism)][_RFIid].RFIid > 0, \"RFI does not exist\");\n        _;\n    }\n\n    modifier RFLVoteExists(IOrganism _organism, uint256 _RFLid) {\n        require(RFLVotes[address(_organism)][_RFLid].RFLid > 0, \"RFL does not exist\");\n        _;\n    }\n\n    modifier senderCanVoteOnRFI(IOrganism _organism, uint256 _RFIid) {\n        require(canVoteOnRFI(_organism, _RFIid, msg.sender), \"sender cannot vote on RFI\");\n        _;\n    }\n\n    modifier senderCanVoteOnRFL(IOrganism _organism, uint256 _RFLid) {\n        require(canVoteOnRFL(_organism, _RFLid, msg.sender), \"sender cannot vote on RFL\");\n        _;\n    }\n\n    modifier valueIsSuperiorToRFLMinimum(IOrganism _organism, uint256 _RFLid, uint256 _value) {\n        require(_value >= _organism.getRFL(_RFLid).lineage.minimum, \"value is inferior to RFL minimum\");\n        _;\n    }\n\n    function initialize(MiniMeToken _token, uint256 _quorum, uint256 _required) external onlyInit {\n        require(_quorum <= 100 && _required <= _quorum, \"initialization parameters out of bound\");\n\n        initialized();\n\n        token = _token;\n        quorum = _quorum.mul(10**16);\n        required = _required.mul(10**16);\n    }\n\n    function createRFI(IOrganism _organism, Pando.IIndividuation _individuation, Pando.ILineage[] _lineages) isInitialized {\n        _createRFI(_organism, _individuation, _lineages);\n    }\n\n    /**\n    * @notice Vote to merge RFI `_RFIid` in organism `_organism`\n    * @param _organism The organism to merge the RFI into\n    * @param _RFIid The RFI identifier\n    */\n    function mergeRFI(IOrganism _organism, uint256 _RFIid) public isInitialized senderCanVoteOnRFI(_organism, _RFIid) {\n        _mergeRFI(_organism, _RFIid);\n    }\n\n    /**\n    * @notice Vote to reject RFI `_RFIid` from organism `_organism`\n    * @param _organism The organism to reject the RFI from\n    * @param _RFIid The RFI identifier\n    */\n    function rejectRFI(IOrganism _organism, uint256 _RFIid) public isInitialized senderCanVoteOnRFI(_organism, _RFIid) {\n        _rejectRFI(_organism, _RFIid);\n    }\n\n    /**\n    * @notice Vote to accept RFL `_RFLid` with a value of `_value` NLT in organism `_organism`\n    * @param _organism The organism to accept the RFL in\n    * @param _RFLid The RFL identifier\n    */\n    function acceptRFL(IOrganism _organism, uint256 _RFLid, uint256 _value)\n        public\n        isInitialized\n        senderCanVoteOnRFL(_organism, _RFLid)\n        valueIsSuperiorToRFLMinimum(_organism, _RFLid, _value)\n    {\n        _acceptRFL(_organism, _RFLid, _value);\n    }\n\n    /**\n    * @notice Vote to reject RFL `_RFLid` from organism `_organism`\n    * @param _organism The organism to reject the RFI from\n    * @param _RFLid The RFL identifier\n    */\n    function rejectRFL(IOrganism _organism, uint256 _RFLid) public isInitialized senderCanVoteOnRFL(_organism, _RFLid) {\n        _rejectRFL(_organism, _RFLid);\n    }\n\n    /*--------------------*/\n\n    function getRFIVote(IOrganism _organism, uint256 _RFIid) public view RFIVoteExists(_organism, _RFIid) returns (RFIVote) {\n        return RFIVotes[address(_organism)][_RFIid];\n    }\n\n    function getRFLVote(IOrganism _organism, uint256 _RFLid) public view RFLVoteExists(_organism, _RFLid) returns (RFLVote) {\n        return RFLVotes[address(_organism)][_RFLid];\n    }\n\n    function getRFIMetadata(IOrganism _organism, uint256 _RFIid) public view RFIVoteExists(_organism, _RFIid) returns (string) {\n        return _organism.getRFI(_RFIid).individuation.metadata;\n    }\n\n    /* function getRFLDestination(IOrganism _organism, uint256 _RFLid) public view RFLVoteExists(_organism, _RFLid) returns (address) {\n        return _organism.getRFL(_RFLid).lineage.destination;\n    }\n\n    function getRFLMinimum(IOrganism _organism, uint256 _RFLid) public view RFLVoteExists(_organism, _RFLid) returns (uint256) {\n        return _organism.getRFL(_RFLid).lineage.minimum;\n    } */\n\n    /* function getRFL(IOrganism _organism, uint256 _RFLid) public view RFLVoteExists(_organism, _RFLid) returns (Pando.RFL) {\n        return _organism.getRFL(_RFLid);\n    } */\n\n    /*--------------------*/\n\n    function _createRFI(IOrganism _organism, Pando.IIndividuation _individuation, Pando.ILineage[] _lineages) internal {\n        uint256 RFIid = _organism.createRFI(_individuation, _lineages);\n\n        Pando.RFI memory RFI = _organism.getRFI(RFIid);\n\n        for (uint256 i = 0; i < RFI.RFLids.length; i++) {\n            _newRFLVote(_organism, RFI.RFLids[i]);\n        }\n\n        _newRFIVote(_organism, RFIid);\n\n        emit CreateRFI(_organism, RFIid, msg.sender);\n    }\n\n    function _mergeRFI(IOrganism _organism, uint256 _RFIid) internal {\n        _voteRFI(_organism, _RFIid, true, msg.sender);\n        emit MergeRFI(_organism, _RFIid, msg.sender);\n    }\n\n    function _rejectRFI(IOrganism _organism, uint256 _RFIid) internal {\n        _voteRFI(_organism, _RFIid, false, msg.sender);\n        emit RejectRFI(_organism, _RFIid, msg.sender);\n    }\n\n    function _newRFIVote(IOrganism _organism, uint256 _RFIid) internal {\n        RFIVote storage vote = RFIVotes[address(_organism)][_RFIid];\n\n        vote.RFIid = _RFIid;\n        vote.blockstamp = block.number - 1; // avoid double voting in this very block\n        vote.supply = token.totalSupplyAt(vote.blockstamp);\n        vote.quorum = quorum;\n        vote.required = required;\n        vote.yea = 0;\n        vote.nay = 0;\n        vote.participation = 0;\n        vote.state = VoteState.Pending;\n\n        emit NewRFIVote(_organism, _RFIid);\n\n        if (canVoteOnRFI(_organism, _RFIid, msg.sender)) {\n            _voteRFI(_organism, _RFIid, true, msg.sender);\n        }\n    }\n\n    function _cancelRFIVote(IOrganism _organism, uint256 _RFIid) internal {\n        RFIVote   storage vote = RFIVotes[address(_organism)][_RFIid];\n        Pando.RFI memory  RFI = _organism.getRFI(_RFIid);\n\n        vote.state = VoteState.Cancelled;\n\n        for (uint256 i = 0; i < RFI.RFLids.length; i++) {\n            if (RFLVotes[address(_organism)][RFI.RFLids[i]].state != VoteState.Executed)\n                _cancelRFLVote(_organism, RFI.RFLids[i]);\n        }\n\n        emit CancelRFIVote(_organism, _RFIid);\n    }\n\n    function _voteRFI(IOrganism _organism, uint256 _RFIid, bool _supports, address _voter) internal {\n        RFIVote storage vote = RFIVotes[address(_organism)][_RFIid];\n\n        uint256 stake = token.balanceOfAt(_voter, vote.blockstamp);\n        VoterState state = RFIVotesBallots[address(_organism)][_RFIid][_voter];\n\n        if (state != VoterState.Absent) {\n            vote.participation = vote.participation.sub(stake);\n        }\n\n        if (state == VoterState.Yea) {\n            vote.yea = vote.yea.sub(stake);\n        } else if (state == VoterState.Nay) {\n            vote.nay = vote.nay.sub(stake);\n        }\n\n        if (_supports) {\n            vote.yea = vote.yea.add(stake);\n            RFIVotesBallots[address(_organism)][_RFIid][_voter] = VoterState.Yea;\n            emit MergeRFI(_organism, vote.RFIid, _voter);\n\n        } else {\n            vote.nay = vote.nay.add(stake);\n            RFIVotesBallots[address(_organism)][_RFIid][_voter] = VoterState.Nay;\n            emit RejectRFI(_organism, vote.RFIid, _voter);\n        }\n\n        vote.participation = vote.participation.add(stake);\n\n        emit CastRFIVote(_organism, _RFIid, _voter, _supports, stake);\n\n        if (canExecuteRFIVote(_organism, _RFIid)) {\n            _executeRFIVote(_organism, _RFIid);\n        }\n    }\n\n    function _executeRFIVote(IOrganism _organism, uint256 _RFIid) internal {\n        RFIVote storage vote = RFIVotes[address(_organism)][_RFIid];\n\n        if (_isValuePct(vote.yea, vote.supply, vote.required)) {\n            _organism.mergeRFI(_RFIid);\n        } else {\n            Pando.RFI memory RFI = _organism.getRFI(_RFIid);\n\n            for (uint256 i = 0; i < RFI.RFLids.length; i++) {\n                _cancelRFLVote(_organism, RFI.RFLids[i]);\n            }\n\n            _organism.rejectRFI(vote.RFIid);\n        }\n\n        vote.state = VoteState.Executed;\n\n        emit ExecuteRFIVote(_organism, _RFIid);\n    }\n\n    function _acceptRFL(IOrganism _organism, uint256 _RFLid, uint256 _value) internal {\n        _voteRFL(_organism, _RFLid, true, _value, msg.sender);\n        emit AcceptRFL(_organism, _RFLid, _value, msg.sender);\n    }\n\n    function _rejectRFL(IOrganism _organism, uint256 _RFLid) internal {\n        _voteRFL(_organism, _RFLid, false, 0, msg.sender);\n        emit RejectRFL(_organism, _RFLid, msg.sender);\n    }\n\n    function _newRFLVote(IOrganism _organism, uint256 _RFLid) internal {\n        RFLVote storage vote = RFLVotes[address(_organism)][_RFLid];\n\n        vote.RFLid = _RFLid;\n        vote.blockstamp = block.number - 1; // avoid double voting in this very block\n        vote.supply = token.totalSupplyAt(vote.blockstamp);\n        vote.quorum = quorum;\n        vote.required = required;\n        vote.yea = 0;\n        vote.nay = 0;\n        vote.total = 0;\n        vote.participation = 0;\n        vote.state = VoteState.Pending;\n\n        emit NewRFLVote(_organism, _RFLid);\n    }\n\n    function _cancelRFLVote(IOrganism _organism, uint256 _RFLid) internal {\n        RFLVote storage vote = RFLVotes[address(_organism)][_RFLid];\n\n        vote.state = VoteState.Cancelled;\n\n        emit CancelRFLVote(_organism, _RFLid);\n    }\n\n    function _voteRFL(IOrganism _organism, uint256 _RFLid, bool _supports, uint256 _value, address _voter) internal {\n        RFLVote storage vote = RFLVotes[address(_organism)][_RFLid];\n\n        uint256 stake = token.balanceOfAt(_voter, vote.blockstamp);\n        RFLBallot storage ballot = RFLVotesBallots[address(_organism)][_RFLid][_voter];\n\n        if (ballot.state != VoterState.Absent) {\n            vote.participation = vote.participation.sub(stake);\n        }\n\n        if (ballot.state == VoterState.Yea) {\n            vote.yea = vote.yea.sub(stake);\n            vote.total = vote.total.sub(stake.mul(ballot.value));\n        } else if (ballot.state == VoterState.Nay) {\n            vote.nay = vote.nay.sub(stake);\n        }\n\n        if (_supports) {\n            vote.yea = vote.yea.add(stake);\n            vote.total = vote.total.add(stake.mul(_value));\n            ballot.state = VoterState.Yea;\n            ballot.value = _value;\n            emit AcceptRFL(_organism, _RFLid, _value, _voter);\n\n        } else {\n            vote.nay = vote.nay.add(stake);\n            ballot.state = VoterState.Nay;\n            ballot.value = 0;\n            emit RejectRFL(_organism, _RFLid, _voter);\n        }\n\n        vote.participation = vote.participation.add(stake);\n\n        emit CastRFLVote(_organism, _RFLid, _voter, _supports, _value, stake);\n\n        if (canExecuteRFLVote(_organism, _RFLid)) {\n            _executeRFLVote(_organism, _RFLid);\n        }\n    }\n\n    function _executeRFLVote(IOrganism _organism, uint256 _RFLid) internal {\n        RFLVote storage vote = RFLVotes[address(_organism)][_RFLid];\n\n        vote.state = VoteState.Executed;\n\n        if (_isValuePct(vote.yea, vote.supply, vote.required)) {\n            _organism.acceptRFL(_RFLid, vote.total.div(vote.yea));\n        } else {\n            _cancelRFIVote(_organism, _organism.getRFL(_RFLid).RFIid);\n            _organism.rejectRFL(_RFLid);\n        }\n\n        emit ExecuteRFLVote(_organism, _RFLid);\n    }\n\n    /*--------------------*/\n\n    function canVoteOnRFI(IOrganism _organism, uint256 _RFIid, address _voter) public view RFIVoteExists(_organism, _RFIid) returns (bool) {\n        RFIVote storage vote = RFIVotes[address(_organism)][_RFIid];\n\n        return vote.state == VoteState.Pending && token.balanceOfAt(_voter, vote.blockstamp) > 0;\n    }\n\n    function canVoteOnRFL(IOrganism _organism, uint256 _RFLid, address _voter) public view RFLVoteExists(_organism, _RFLid) returns (bool) {\n        RFLVote storage vote = RFLVotes[address(_organism)][_RFLid];\n\n        return vote.state == VoteState.Pending && token.balanceOfAt(_voter, vote.blockstamp) > 0;\n    }\n\n    function canExecuteRFIVote(IOrganism _organism, uint256 _RFIid) public view RFIVoteExists(_organism, _RFIid) returns (bool) {\n        RFIVote storage vote = RFIVotes[address(_organism)][_RFIid];\n        Pando.RFI memory RFI = _organism.getRFI(vote.RFIid);\n\n        if (vote.state != VoteState.Pending) {\n            return false;\n        }\n\n        if (_isValuePct(vote.participation, vote.supply, vote.quorum)) {\n            if (_isValuePct(vote.yea, vote.supply, vote.required)) {\n                for (uint256 i = 0; i < RFI.RFLids.length; i++) {\n                    Pando.RFL memory RFL = _organism.getRFL(RFI.RFLids[i]);\n                    if (RFL.state != Pando.RFLState.Accepted) {\n                        return false;\n                    }\n                }\n            }\n            return true;\n        }\n\n        return false;\n    }\n\n    function canExecuteRFLVote(IOrganism _organism, uint256 _RFLid) public view RFLVoteExists(_organism, _RFLid) returns (bool) {\n        RFLVote storage vote = RFLVotes[address(_organism)][_RFLid];\n\n        if (vote.state != VoteState.Pending) {\n            return false;\n        }\n\n        if (_isValuePct(vote.participation, vote.supply, vote.quorum)) {\n            return true;\n        }\n\n        return false;\n    }\n\n    /**\n    * @dev Calculates whether `_value` is more than a percentage `_pct` of `_total`\n    */\n    function _isValuePct(uint256 _value, uint256 _total, uint256 _pct) internal pure returns (bool) {\n        if (_total == 0) {\n            return false;\n        }\n\n        uint256 computedPct = _value.mul(PCT_BASE) / _total;\n        return computedPct > _pct;\n    }\n}\n",
  "sourcePath": "/Users/osarrouy/Documents/devs/@pando/packages/scheme-democracy/contracts/DemocracyScheme.sol",
  "compiler": {
    "name": "solc",
    "version": "0.4.24+commit.e67f0147.Emscripten.clang"
  },
  "schemaVersion": "3.0.0-beta.2",
  "updatedAt": "2019-01-24T14:56:12.584Z",
  "devdoc": {
    "methods": {
      "acceptRFL(address,uint256,uint256)": {
        "params": {
          "_RFLid": "The RFL identifier",
          "_organism": "The organism to accept the RFL in"
        }
      },
      "allowRecoverability(address)": {
        "details": "By default deriving from AragonApp makes it recoverable",
        "params": {
          "token": "Token address that would be recovered"
        },
        "return": "bool whether the app allows the recovery"
      },
      "canPerform(address,bytes32,uint256[])": {
        "details": "Check whether an action can be performed by a sender for a particular role on this app",
        "params": {
          "_params": "Permission params for the role",
          "_role": "Role on this app",
          "_sender": "Sender of the call"
        },
        "return": "Boolean indicating whether the sender has the permissions to perform the action.        Always returns false if the app hasn't been initialized yet."
      },
      "getInitializationBlock()": {
        "return": "Block number in which the contract was initialized"
      },
      "getRecoveryVault()": {
        "details": "Get the recovery vault for the app",
        "return": "Recovery vault address for the app"
      },
      "hasInitialized()": {
        "return": "Whether the contract has been initialized by the time of the current block"
      },
      "mergeRFI(address,uint256)": {
        "params": {
          "_RFIid": "The RFI identifier",
          "_organism": "The organism to merge the RFI into"
        }
      },
      "rejectRFI(address,uint256)": {
        "params": {
          "_RFIid": "The RFI identifier",
          "_organism": "The organism to reject the RFI from"
        }
      },
      "rejectRFL(address,uint256)": {
        "params": {
          "_RFLid": "The RFL identifier",
          "_organism": "The organism to reject the RFI from"
        }
      },
      "transferToVault(address)": {
        "params": {
          "_token": "Token balance to be sent to recovery vault."
        }
      }
    }
  },
  "userdoc": {
    "methods": {
      "acceptRFL(address,uint256,uint256)": {
        "notice": "Vote to accept RFL `_RFLid` with a value of `_value` NLT in organism `_organism`"
      },
      "mergeRFI(address,uint256)": {
        "notice": "Vote to merge RFI `_RFIid` in organism `_organism`"
      },
      "rejectRFI(address,uint256)": {
        "notice": "Vote to reject RFI `_RFIid` from organism `_organism`"
      },
      "rejectRFL(address,uint256)": {
        "notice": "Vote to reject RFL `_RFLid` from organism `_organism`"
      },
      "transferToVault(address)": {
        "notice": "Send funds to recovery Vault. This contract should never receive funds,        but in case it does, this function allows one to recover them."
      }
    }
  }
}